{
   "hex": "0100000050a87762016e584995b3266c02c56bcbbb7f3c5c24edb772d6c0f7b64330afa93a13d2aff00100000048473044022015d66f6b3d08e97e14eebb11c5e3132a59ffe6106e6d22e9845b818f66ab7d9202202c350085f14b2c42e8524a0d2047a314e3df1d4a6992745384b36fef6d3aec1c01ffffffff0200000000000000000080f8d7fa0e0000002321022dbc07d2ce8e25f0e7d19113bec991d1a6c41a3f9a6a29978bea78eb1fe11009ac00000000",
   "txid": "3bcc6d66b37abf396234313356e89023995de8db03dc82dd2aaced1660cba8e3",
   "size": 180,
   "version": 1,
   "time": 1652009040,
   "locktime": 0,
   "vin":
   [
      {
         "txid": "f0afd2133aa9af3043b6f7c0d672b7ed245c3c7fbbcb6bc5026c26b39549586e",
         "vout": 1,
         "scriptSig": {
            "asm": "3044022015d66f6b3d08e97e14eebb11c5e3132a59ffe6106e6d22e9845b818f66ab7d9202202c350085f14b2c42e8524a0d2047a314e3df1d4a6992745384b36fef6d3aec1c[ALL]",
            "hex": "473044022015d66f6b3d08e97e14eebb11c5e3132a59ffe6106e6d22e9845b818f66ab7d9202202c350085f14b2c42e8524a0d2047a314e3df1d4a6992745384b36fef6d3aec1c01"
         },
         "sequence": 4294967295
      }
   ],
   "vout": [
      {
         "value": 0,
         "n": 0,
         "scriptPubKey": {
            "asm":"",
            "hex":"",
            "type":"nonstandard"
         }
      },
      {
         "value": 643.38,
         "n": 1,
         "scriptPubKey": {
            "asm": "022dbc07d2ce8e25f0e7d19113bec991d1a6c41a3f9a6a29978bea78eb1fe11009 OP_CHECKSIG",
            "hex": "21022dbc07d2ce8e25f0e7d19113bec991d1a6c41a3f9a6a29978bea78eb1fe11009ac",
            "reqSigs": 1,
            "type": "pubkey",
            "addresses": [
               "mkNn5JFbXYhi9XrA286GeZ2rWZYX22WyJk"
            ]
         }
      }
   ],
   "blockhash": "2249fe3390f2919f07d7db3ccb8c2aa326cc7872dbba83c6e529a3d80b14028f",
   "confirmations": 23,
   "blocktime": 1652009040
}
