{
   "hex": "0100000090a7776201a122a1a39f49c525116c8f14aaa6d8f0fba6d9101485b24326127bad59d4edfd010000004847304402202bc9520109482122307d635e14989463d1a63bda5221e7b02a238c7cb1cdbedd02203c725f3b97749eb022ce00b51ea8a9fa1e13b33b85438388649ae976310a16cc01ffffffff02000000000000000000c069f19e1300000023210384136439c98a00fd4b05d747856dcd465989c69281758a6438152279284f4e7dac00000000",
   "txid": "7db87e15e32317a7fbe9848395cf84a9263c6a66ab826234486d788fa4b6834b",
   "size": 180,
   "version": 1,
   "time": 1652008848,
   "locktime": 0,
   "vin": [
      {
         "txid": "fdedd459ad7b122643b2851410d9a6fbf0d8a6aa148f6c1125c5499fa3a122a1",
         "vout": 1,
         "scriptSig": {
            "asm": "304402202bc9520109482122307d635e14989463d1a63bda5221e7b02a238c7cb1cdbedd02203c725f3b97749eb022ce00b51ea8a9fa1e13b33b85438388649ae976310a16cc[ALL]",
            "hex": "47304402202bc9520109482122307d635e14989463d1a63bda5221e7b02a238c7cb1cdbedd02203c725f3b97749eb022ce00b51ea8a9fa1e13b33b85438388649ae976310a16cc01"
         },
         "sequence": 4294967295
      }
   ],
   "vout": [
      {
         "value": 0,
         "n": 0,
         "scriptPubKey": {
            "asm": "",
            "hex": "",
            "type": "nonstandard"
         }
      },
      {
         "value": 842.71,
         "n": 1,
         "scriptPubKey": {
            "asm": "0384136439c98a00fd4b05d747856dcd465989c69281758a6438152279284f4e7d OP_CHECKSIG",
            "hex": "210384136439c98a00fd4b05d747856dcd465989c69281758a6438152279284f4e7dac",
            "reqSigs": 1,
            "type": "pubkey",
            "addresses": [
               "BGjR7T1gLPqEv9PDbbpKU5Z2BfbcTQFbYE"
            ]
         }
      }
   ],
   "blockhash": "229f7148da76eb8918d9b425199058fe8d9c048983a6057c6bb95113df4243dc",
   "confirmations": 22,
   "blocktime": 1652008848
}

